{"contracts/Sentinel.sol":{"ZKSentinel":{"abi":[{"inputs":[{"internalType":"address","name":"_verifierAddress","type":"address"}],"stateMutability":"nonpayable","type":"constructor"},{"anonymous":false,"inputs":[{"indexed":true,"internalType":"address","name":"user","type":"address"},{"indexed":false,"internalType":"uint256","name":"timestamp","type":"uint256"},{"indexed":false,"internalType":"uint256","name":"scoreThreshold","type":"uint256"}],"name":"CreditVerified","type":"event"},{"inputs":[{"internalType":"address","name":"_user","type":"address"}],"name":"isVerified","outputs":[{"internalType":"bool","name":"","type":"bool"}],"stateMutability":"view","type":"function"},{"inputs":[{"internalType":"address","name":"","type":"address"}],"name":"verifiedUsers","outputs":[{"internalType":"uint256","name":"","type":"uint256"}],"stateMutability":"view","type":"function"},{"inputs":[],"name":"verifier","outputs":[{"internalType":"contract IVerifier","name":"","type":"address"}],"stateMutability":"view","type":"function"},{"inputs":[{"internalType":"uint256[2]","name":"a","type":"uint256[2]"},{"internalType":"uint256[2][2]","name":"b","type":"uint256[2][2]"},{"internalType":"uint256[2]","name":"c","type":"uint256[2]"},{"internalType":"uint256[2]","name":"input","type":"uint256[2]"}],"name":"verifyCreditScore","outputs":[],"stateMutability":"nonpayable","type":"function"}],"evm":{"bytecode":{"linkReferences":{},"object":"608060405234801561001057600080fd5b50604051610d77380380610d77833981810160405281019061003291906100db565b806000806101000a81548173ffffffffffffffffffffffffffffffffffffffff021916908373ffffffffffffffffffffffffffffffffffffffff16021790555050610108565b600080fd5b600073ffffffffffffffffffffffffffffffffffffffff82169050919050565b60006100a88261007d565b9050919050565b6100b88161009d565b81146100c357600080fd5b50565b6000815190506100d5816100af565b92915050565b6000602082840312156100f1576100f0610078565b5b60006100ff848285016100c6565b91505092915050565b610c60806101176000396000f3fe608060405234801561001057600080fd5b506004361061004c5760003560e01c80632b7ac3f314610051578063412067bc1461006f578063b9209e331461008b578063e35fe366146100bb575b600080fd5b6100596100eb565b604051610066919061045c565b60405180910390f35b610089600480360381019061008491906106b4565b61010f565b005b6100a560048036038101906100a0919061075b565b61037a565b6040516100b291906107a3565b60405180910390f35b6100d560048036038101906100d0919061075b565b6103c5565b6040516100e291906107cd565b60405180910390f35b60008054906101000a900473ffffffffffffffffffffffffffffffffffffffff1681565b6102bc81600060028110610126576101256107e8565b5b6020020151101561016c576040517f08c379a00000000000000000000000000000000000000000000000000000000081526004016101639061089a565b60405180910390fd5b60003373ffffffffffffffffffffffffffffffffffffffff169050808260016002811061019c5761019b6107e8565b5b6020020151146101e1576040517f08c379a00000000000000000000000000000000000000000000000000000000081526004016101d89061092c565b60405180910390fd5b60008060009054906101000a900473ffffffffffffffffffffffffffffffffffffffff1673ffffffffffffffffffffffffffffffffffffffff1663f5c9d69e878787876040518563ffffffff1660e01b81526004016102439493929190610af5565b602060405180830381865afa158015610260573d6000803e3d6000fd5b505050506040513d601f19601f820116820180604052508101906102849190610b68565b9050806102c6576040517f08c379a00000000000000000000000000000000000000000000000000000000081526004016102bd90610be1565b60405180910390fd5b42600160003373ffffffffffffffffffffffffffffffffffffffff1673ffffffffffffffffffffffffffffffffffffffff168152602001908152602001600020819055503373ffffffffffffffffffffffffffffffffffffffff167f4a28277b155ae24501d527d894808e7990779afea0a610806097bbe6791eddc54285600060028110610357576103566107e8565b5b602002015160405161036a929190610c01565b60405180910390a2505050505050565b600080600160008473ffffffffffffffffffffffffffffffffffffffff1673ffffffffffffffffffffffffffffffffffffffff16815260200190815260200160002054119050919050565b60016020528060005260406000206000915090505481565b600073ffffffffffffffffffffffffffffffffffffffff82169050919050565b6000819050919050565b600061042261041d610418846103dd565b6103fd565b6103dd565b9050919050565b600061043482610407565b9050919050565b600061044682610429565b9050919050565b6104568161043b565b82525050565b6000602082019050610471600083018461044d565b92915050565b6000604051905090565b600080fd5b600080fd5b6000601f19601f8301169050919050565b7f4e487b7100000000000000000000000000000000000000000000000000000000600052604160045260246000fd5b6104d48261048b565b810181811067ffffffffffffffff821117156104f3576104f261049c565b5b80604052505050565b6000610506610477565b905061051282826104cb565b919050565b600067ffffffffffffffff8211156105325761053161049c565b5b602082029050919050565b600080fd5b6000819050919050565b61055581610542565b811461056057600080fd5b50565b6000813590506105728161054c565b92915050565b600061058b61058684610517565b6104fc565b905080602084028301858111156105a5576105a461053d565b5b835b818110156105ce57806105ba8882610563565b8452602084019350506020810190506105a7565b5050509392505050565b600082601f8301126105ed576105ec610486565b5b60026105fa848285610578565b91505092915050565b600067ffffffffffffffff82111561061e5761061d61049c565b5b602082029050919050565b600061063c61063784610603565b6104fc565b905080604084028301858111156106565761065561053d565b5b835b8181101561067f578061066b88826105d8565b845260208401935050604081019050610658565b5050509392505050565b600082601f83011261069e5761069d610486565b5b60026106ab848285610629565b91505092915050565b60008060008061014085870312156106cf576106ce610481565b5b60006106dd878288016105d8565b94505060406106ee87828801610689565b93505060c06106ff878288016105d8565b925050610100610711878288016105d8565b91505092959194509250565b6000610728826103dd565b9050919050565b6107388161071d565b811461074357600080fd5b50565b6000813590506107558161072f565b92915050565b60006020828403121561077157610770610481565b5b600061077f84828501610746565b91505092915050565b60008115159050919050565b61079d81610788565b82525050565b60006020820190506107b86000830184610794565b92915050565b6107c781610542565b82525050565b60006020820190506107e260008301846107be565b92915050565b7f4e487b7100000000000000000000000000000000000000000000000000000000600052603260045260246000fd5b600082825260208201905092915050565b7f4d696e696d756d2073636f7265207468726573686f6c64206e6f74206d65742060008201527f286d757374206265203e3d203730302900000000000000000000000000000000602082015250565b6000610884603083610817565b915061088f82610828565b604082019050919050565b600060208201905081810360008301526108b381610877565b9050919050565b7f50726f6f6620696e76616c69643a2057616c6c65742061646472657373206d6960008201527f736d617463682100000000000000000000000000000000000000000000000000602082015250565b6000610916602783610817565b9150610921826108ba565b604082019050919050565b6000602082019050818103600083015261094581610909565b9050919050565b600060029050919050565b600081905092915050565b6000819050919050565b61097581610542565b82525050565b6000610987838361096c565b60208301905092915050565b6000602082019050919050565b6109a98161094c565b6109b38184610957565b92506109be82610962565b8060005b838110156109ef5781516109d6878261097b565b96506109e183610993565b9250506001810190506109c2565b505050505050565b600060029050919050565b600081905092915050565b6000819050919050565b600081905092915050565b610a2b8161094c565b610a358184610a17565b9250610a4082610962565b8060005b83811015610a71578151610a58878261097b565b9650610a6383610993565b925050600181019050610a44565b505050505050565b6000610a858383610a22565b60408301905092915050565b6000602082019050919050565b610aa7816109f7565b610ab18184610a02565b9250610abc82610a0d565b8060005b83811015610aed578151610ad48782610a79565b9650610adf83610a91565b925050600181019050610ac0565b505050505050565b600061014082019050610b0b60008301876109a0565b610b186040830186610a9e565b610b2560c08301856109a0565b610b336101008301846109a0565b95945050505050565b610b4581610788565b8114610b5057600080fd5b50565b600081519050610b6281610b3c565b92915050565b600060208284031215610b7e57610b7d610481565b5b6000610b8c84828501610b53565b91505092915050565b7f496e76616c6964205a4b2050726f6f6620646574656374656400000000000000600082015250565b6000610bcb601983610817565b9150610bd682610b95565b602082019050919050565b60006020820190508181036000830152610bfa81610bbe565b9050919050565b6000604082019050610c1660008301856107be565b610c2360208301846107be565b939250505056fea264697066735822122070b8e44bd6992abb644dfadd39f3c2288dc0d35d57b91daac5d25f8d7f9cd3bc64736f6c63430008130033","opcodes":"PUSH1 0x80 PUSH1 0x40 MSTORE CALLVALUE DUP1 ISZERO PUSH2 0x10 JUMPI PUSH1 0x0 DUP1 REVERT JUMPDEST POP PUSH1 0x40 MLOAD PUSH2 0xD77 CODESIZE SUB DUP1 PUSH2 0xD77 DUP4 CODECOPY DUP2 DUP2 ADD PUSH1 0x40 MSTORE DUP2 ADD SWAP1 PUSH2 0x32 SWAP2 SWAP1 PUSH2 0xDB JUMP JUMPDEST DUP1 PUSH1 0x0 DUP1 PUSH2 0x100 EXP DUP2 SLOAD DUP2 PUSH20 0xFFFFFFFFFFFFFFFFFFFFFFFFFFFFFFFFFFFFFFFF MUL NOT AND SWAP1 DUP4 PUSH20 0xFFFFFFFFFFFFFFFFFFFFFFFFFFFFFFFFFFFFFFFF AND MUL OR SWAP1 SSTORE POP POP PUSH2 0x108 JUMP JUMPDEST PUSH1 0x0 DUP1 REVERT JUMPDEST PUSH1 0x0 PUSH20 0xFFFFFFFFFFFFFFFFFFFFFFFFFFFFFFFFFFFFFFFF DUP3 AND SWAP1 POP SWAP2 SWAP1 POP JUMP JUMPDEST PUSH1 0x0 PUSH2 0xA8 DUP3 PUSH2 0x7D JUMP JUMPDEST SWAP1 POP SWAP2 SWAP1 POP JUMP JUMPDEST PUSH2 0xB8 DUP2 PUSH2 0x9D JUMP JUMPDEST DUP2 EQ PUSH2 0xC3 JUMPI PUSH1 0x0 DUP1 REVERT JUMPDEST POP JUMP JUMPDEST PUSH1 0x0 DUP2 MLOAD SWAP1 POP PUSH2 0xD5 DUP2 PUSH2 0xAF JUMP JUMPDEST SWAP3 SWAP2 POP POP JUMP JUMPDEST PUSH1 0x0 PUSH1 0x20 DUP3 DUP5 SUB SLT ISZERO PUSH2 0xF1 JUMPI PUSH2 0xF0 PUSH2 0x78 JUMP JUMPDEST JUMPDEST PUSH1 0x0 PUSH2 0xFF DUP5 DUP3 DUP6 ADD PUSH2 0xC6 JUMP JUMPDEST SWAP2 POP POP SWAP3 SWAP2 POP POP JUMP JUMPDEST PUSH2 0xC60 DUP1 PUSH2 0x117 PUSH1 0x0 CODECOPY PUSH1 0x0 RETURN INVALID PUSH1 0x80 PUSH1 0x40 MSTORE CALLVALUE DUP1 ISZERO PUSH2 0x10 JUMPI PUSH1 0x0 DUP1 REVERT JUMPDEST POP PUSH1 0x4 CALLDATASIZE LT PUSH2 0x4C JUMPI PUSH1 0x0 CALLDATALOAD PUSH1 0xE0 SHR DUP1 PUSH4 0x2B7AC3F3 EQ PUSH2 0x51 JUMPI DUP1 PUSH4 0x412067BC EQ PUSH2 0x6F JUMPI DUP1 PUSH4 0xB9209E33 EQ PUSH2 0x8B JUMPI DUP1 PUSH4 0xE35FE366 EQ PUSH2 0xBB JUMPI JUMPDEST PUSH1 0x0 DUP1 REVERT JUMPDEST PUSH2 0x59 PUSH2 0xEB JUMP JUMPDEST PUSH1 0x40 MLOAD PUSH2 0x66 SWAP2 SWAP1 PUSH2 0x45C JUMP JUMPDEST PUSH1 0x40 MLOAD DUP1 SWAP2 SUB SWAP1 RETURN JUMPDEST PUSH2 0x89 PUSH1 0x4 DUP1 CALLDATASIZE SUB DUP2 ADD SWAP1 PUSH2 0x84 SWAP2 SWAP1 PUSH2 0x6B4 JUMP JUMPDEST PUSH2 0x10F JUMP JUMPDEST STOP JUMPDEST PUSH2 0xA5 PUSH1 0x4 DUP1 CALLDATASIZE SUB DUP2 ADD SWAP1 PUSH2 0xA0 SWAP2 SWAP1 PUSH2 0x75B JUMP JUMPDEST PUSH2 0x37A JUMP JUMPDEST PUSH1 0x40 MLOAD PUSH2 0xB2 SWAP2 SWAP1 PUSH2 0x7A3 JUMP JUMPDEST PUSH1 0x40 MLOAD DUP1 SWAP2 SUB SWAP1 RETURN JUMPDEST PUSH2 0xD5 PUSH1 0x4 DUP1 CALLDATASIZE SUB DUP2 ADD SWAP1 PUSH2 0xD0 SWAP2 SWAP1 PUSH2 0x75B JUMP JUMPDEST PUSH2 0x3C5 JUMP JUMPDEST PUSH1 0x40 MLOAD PUSH2 0xE2 SWAP2 SWAP1 PUSH2 0x7CD JUMP JUMPDEST PUSH1 0x40 MLOAD DUP1 SWAP2 SUB SWAP1 RETURN JUMPDEST PUSH1 0x0 DUP1 SLOAD SWAP1 PUSH2 0x100 EXP SWAP1 DIV PUSH20 0xFFFFFFFFFFFFFFFFFFFFFFFFFFFFFFFFFFFFFFFF AND DUP2 JUMP JUMPDEST PUSH2 0x2BC DUP2 PUSH1 0x0 PUSH1 0x2 DUP2 LT PUSH2 0x126 JUMPI PUSH2 0x125 PUSH2 0x7E8 JUMP JUMPDEST JUMPDEST PUSH1 0x20 MUL ADD MLOAD LT ISZERO PUSH2 0x16C JUMPI PUSH1 0x40 MLOAD PUSH32 0x8C379A000000000000000000000000000000000000000000000000000000000 DUP2 MSTORE PUSH1 0x4 ADD PUSH2 0x163 SWAP1 PUSH2 0x89A JUMP JUMPDEST PUSH1 0x40 MLOAD DUP1 SWAP2 SUB SWAP1 REVERT JUMPDEST PUSH1 0x0 CALLER PUSH20 0xFFFFFFFFFFFFFFFFFFFFFFFFFFFFFFFFFFFFFFFF AND SWAP1 POP DUP1 DUP3 PUSH1 0x1 PUSH1 0x2 DUP2 LT PUSH2 0x19C JUMPI PUSH2 0x19B PUSH2 0x7E8 JUMP JUMPDEST JUMPDEST PUSH1 0x20 MUL ADD MLOAD EQ PUSH2 0x1E1 JUMPI PUSH1 0x40 MLOAD PUSH32 0x8C379A000000000000000000000000000000000000000000000000000000000 DUP2 MSTORE PUSH1 0x4 ADD PUSH2 0x1D8 SWAP1 PUSH2 0x92C JUMP JUMPDEST PUSH1 0x40 MLOAD DUP1 SWAP2 SUB SWAP1 REVERT JUMPDEST PUSH1 0x0 DUP1 PUSH1 0x0 SWAP1 SLOAD SWAP1 PUSH2 0x100 EXP SWAP1 DIV PUSH20 0xFFFFFFFFFFFFFFFFFFFFFFFFFFFFFFFFFFFFFFFF AND PUSH20 0xFFFFFFFFFFFFFFFFFFFFFFFFFFFFFFFFFFFFFFFF AND PUSH4 0xF5C9D69E DUP8 DUP8 DUP8 DUP8 PUSH1 0x40 MLOAD DUP6 PUSH4 0xFFFFFFFF AND PUSH1 0xE0 SHL DUP2 MSTORE PUSH1 0x4 ADD PUSH2 0x243 SWAP5 SWAP4 SWAP3 SWAP2 SWAP1 PUSH2 0xAF5 JUMP JUMPDEST PUSH1 0x20 PUSH1 0x40 MLOAD DUP1 DUP4 SUB DUP2 DUP7 GAS STATICCALL ISZERO DUP1 ISZERO PUSH2 0x260 JUMPI RETURNDATASIZE PUSH1 0x0 DUP1 RETURNDATACOPY RETURNDATASIZE PUSH1 0x0 REVERT JUMPDEST POP POP POP POP PUSH1 0x40 MLOAD RETURNDATASIZE PUSH1 0x1F NOT PUSH1 0x1F DUP3 ADD AND DUP3 ADD DUP1 PUSH1 0x40 MSTORE POP DUP2 ADD SWAP1 PUSH2 0x284 SWAP2 SWAP1 PUSH2 0xB68 JUMP JUMPDEST SWAP1 POP DUP1 PUSH2 0x2C6 JUMPI PUSH1 0x40 MLOAD PUSH32 0x8C379A000000000000000000000000000000000000000000000000000000000 DUP2 MSTORE PUSH1 0x4 ADD PUSH2 0x2BD SWAP1 PUSH2 0xBE1 JUMP JUMPDEST PUSH1 0x40 MLOAD DUP1 SWAP2 SUB SWAP1 REVERT JUMPDEST TIMESTAMP PUSH1 0x1 PUSH1 0x0 CALLER PUSH20 0xFFFFFFFFFFFFFFFFFFFFFFFFFFFFFFFFFFFFFFFF AND PUSH20 0xFFFFFFFFFFFFFFFFFFFFFFFFFFFFFFFFFFFFFFFF AND DUP2 MSTORE PUSH1 0x20 ADD SWAP1 DUP2 MSTORE PUSH1 0x20 ADD PUSH1 0x0 KECCAK256 DUP2 SWAP1 SSTORE POP CALLER PUSH20 0xFFFFFFFFFFFFFFFFFFFFFFFFFFFFFFFFFFFFFFFF AND PUSH32 0x4A28277B155AE24501D527D894808E7990779AFEA0A610806097BBE6791EDDC5 TIMESTAMP DUP6 PUSH1 0x0 PUSH1 0x2 DUP2 LT PUSH2 0x357 JUMPI PUSH2 0x356 PUSH2 0x7E8 JUMP JUMPDEST JUMPDEST PUSH1 0x20 MUL ADD MLOAD PUSH1 0x40 MLOAD PUSH2 0x36A SWAP3 SWAP2 SWAP1 PUSH2 0xC01 JUMP JUMPDEST PUSH1 0x40 MLOAD DUP1 SWAP2 SUB SWAP1 LOG2 POP POP POP POP POP POP JUMP JUMPDEST PUSH1 0x0 DUP1 PUSH1 0x1 PUSH1 0x0 DUP5 PUSH20 0xFFFFFFFFFFFFFFFFFFFFFFFFFFFFFFFFFFFFFFFF AND PUSH20 0xFFFFFFFFFFFFFFFFFFFFFFFFFFFFFFFFFFFFFFFF AND DUP2 MSTORE PUSH1 0x20 ADD SWAP1 DUP2 MSTORE PUSH1 0x20 ADD PUSH1 0x0 KECCAK256 SLOAD GT SWAP1 POP SWAP2 SWAP1 POP JUMP JUMPDEST PUSH1 0x1 PUSH1 0x20 MSTORE DUP1 PUSH1 0x0 MSTORE PUSH1 0x40 PUSH1 0x0 KECCAK256 PUSH1 0x0 SWAP2 POP SWAP1 POP SLOAD DUP2 JUMP JUMPDEST PUSH1 0x0 PUSH20 0xFFFFFFFFFFFFFFFFFFFFFFFFFFFFFFFFFFFFFFFF DUP3 AND SWAP1 POP SWAP2 SWAP1 POP JUMP JUMPDEST PUSH1 0x0 DUP2 SWAP1 POP SWAP2 SWAP1 POP JUMP JUMPDEST PUSH1 0x0 PUSH2 0x422 PUSH2 0x41D PUSH2 0x418 DUP5 PUSH2 0x3DD JUMP JUMPDEST PUSH2 0x3FD JUMP JUMPDEST PUSH2 0x3DD JUMP JUMPDEST SWAP1 POP SWAP2 SWAP1 POP JUMP JUMPDEST PUSH1 0x0 PUSH2 0x434 DUP3 PUSH2 0x407 JUMP JUMPDEST SWAP1 POP SWAP2 SWAP1 POP JUMP JUMPDEST PUSH1 0x0 PUSH2 0x446 DUP3 PUSH2 0x429 JUMP JUMPDEST SWAP1 POP SWAP2 SWAP1 POP JUMP JUMPDEST PUSH2 0x456 DUP2 PUSH2 0x43B JUMP JUMPDEST DUP3 MSTORE POP POP JUMP JUMPDEST PUSH1 0x0 PUSH1 0x20 DUP3 ADD SWAP1 POP PUSH2 0x471 PUSH1 0x0 DUP4 ADD DUP5 PUSH2 0x44D JUMP JUMPDEST SWAP3 SWAP2 POP POP JUMP JUMPDEST PUSH1 0x0 PUSH1 0x40 MLOAD SWAP1 POP SWAP1 JUMP JUMPDEST PUSH1 0x0 DUP1 REVERT JUMPDEST PUSH1 0x0 DUP1 REVERT JUMPDEST PUSH1 0x0 PUSH1 0x1F NOT PUSH1 0x1F DUP4 ADD AND SWAP1 POP SWAP2 SWAP1 POP JUMP JUMPDEST PUSH32 0x4E487B7100000000000000000000000000000000000000000000000000000000 PUSH1 0x0 MSTORE PUSH1 0x41 PUSH1 0x4 MSTORE PUSH1 0x24 PUSH1 0x0 REVERT JUMPDEST PUSH2 0x4D4 DUP3 PUSH2 0x48B JUMP JUMPDEST DUP2 ADD DUP2 DUP2 LT PUSH8 0xFFFFFFFFFFFFFFFF DUP3 GT OR ISZERO PUSH2 0x4F3 JUMPI PUSH2 0x4F2 PUSH2 0x49C JUMP JUMPDEST JUMPDEST DUP1 PUSH1 0x40 MSTORE POP POP POP JUMP JUMPDEST PUSH1 0x0 PUSH2 0x506 PUSH2 0x477 JUMP JUMPDEST SWAP1 POP PUSH2 0x512 DUP3 DUP3 PUSH2 0x4CB JUMP JUMPDEST SWAP2 SWAP1 POP JUMP JUMPDEST PUSH1 0x0 PUSH8 0xFFFFFFFFFFFFFFFF DUP3 GT ISZERO PUSH2 0x532 JUMPI PUSH2 0x531 PUSH2 0x49C JUMP JUMPDEST JUMPDEST PUSH1 0x20 DUP3 MUL SWAP1 POP SWAP2 SWAP1 POP JUMP JUMPDEST PUSH1 0x0 DUP1 REVERT JUMPDEST PUSH1 0x0 DUP2 SWAP1 POP SWAP2 SWAP1 POP JUMP JUMPDEST PUSH2 0x555 DUP2 PUSH2 0x542 JUMP JUMPDEST DUP2 EQ PUSH2 0x560 JUMPI PUSH1 0x0 DUP1 REVERT JUMPDEST POP JUMP JUMPDEST PUSH1 0x0 DUP2 CALLDATALOAD SWAP1 POP PUSH2 0x572 DUP2 PUSH2 0x54C JUMP JUMPDEST SWAP3 SWAP2 POP POP JUMP JUMPDEST PUSH1 0x0 PUSH2 0x58B PUSH2 0x586 DUP5 PUSH2 0x517 JUMP JUMPDEST PUSH2 0x4FC JUMP JUMPDEST SWAP1 POP DUP1 PUSH1 0x20 DUP5 MUL DUP4 ADD DUP6 DUP2 GT ISZERO PUSH2 0x5A5 JUMPI PUSH2 0x5A4 PUSH2 0x53D JUMP JUMPDEST JUMPDEST DUP4 JUMPDEST DUP2 DUP2 LT ISZERO PUSH2 0x5CE JUMPI DUP1 PUSH2 0x5BA DUP9 DUP3 PUSH2 0x563 JUMP JUMPDEST DUP5 MSTORE PUSH1 0x20 DUP5 ADD SWAP4 POP POP PUSH1 0x20 DUP2 ADD SWAP1 POP PUSH2 0x5A7 JUMP JUMPDEST POP POP POP SWAP4 SWAP3 POP POP POP JUMP JUMPDEST PUSH1 0x0 DUP3 PUSH1 0x1F DUP4 ADD SLT PUSH2 0x5ED JUMPI PUSH2 0x5EC PUSH2 0x486 JUMP JUMPDEST JUMPDEST PUSH1 0x2 PUSH2 0x5FA DUP5 DUP3 DUP6 PUSH2 0x578 JUMP JUMPDEST SWAP2 POP POP SWAP3 SWAP2 POP POP JUMP JUMPDEST PUSH1 0x0 PUSH8 0xFFFFFFFFFFFFFFFF DUP3 GT ISZERO PUSH2 0x61E JUMPI PUSH2 0x61D PUSH2 0x49C JUMP JUMPDEST JUMPDEST PUSH1 0x20 DUP3 MUL SWAP1 POP SWAP2 SWAP1 POP JUMP JUMPDEST PUSH1 0x0 PUSH2 0x63C PUSH2 0x637 DUP5 PUSH2 0x603 JUMP JUMPDEST PUSH2 0x4FC JUMP JUMPDEST SWAP1 POP DUP1 PUSH1 0x40 DUP5 MUL DUP4 ADD DUP6 DUP2 GT ISZERO PUSH2 0x656 JUMPI PUSH2 0x655 PUSH2 0x53D JUMP JUMPDEST JUMPDEST DUP4 JUMPDEST DUP2 DUP2 LT ISZERO PUSH2 0x67F JUMPI DUP1 PUSH2 0x66B DUP9 DUP3 PUSH2 0x5D8 JUMP JUMPDEST DUP5 MSTORE PUSH1 0x20 DUP5 ADD SWAP4 POP POP PUSH1 0x40 DUP2 ADD SWAP1 POP PUSH2 0x658 JUMP JUMPDEST POP POP POP SWAP4 SWAP3 POP POP POP JUMP JUMPDEST PUSH1 0x0 DUP3 PUSH1 0x1F DUP4 ADD SLT PUSH2 0x69E JUMPI PUSH2 0x69D PUSH2 0x486 JUMP JUMPDEST JUMPDEST PUSH1 0x2 PUSH2 0x6AB DUP5 DUP3 DUP6 PUSH2 0x629 JUMP JUMPDEST SWAP2 POP POP SWAP3 SWAP2 POP POP JUMP JUMPDEST PUSH1 0x0 DUP1 PUSH1 0x0 DUP1 PUSH2 0x140 DUP6 DUP8 SUB SLT ISZERO PUSH2 0x6CF JUMPI PUSH2 0x6CE PUSH2 0x481 JUMP JUMPDEST JUMPDEST PUSH1 0x0 PUSH2 0x6DD DUP8 DUP3 DUP9 ADD PUSH2 0x5D8 JUMP JUMPDEST SWAP5 POP POP PUSH1 0x40 PUSH2 0x6EE DUP8 DUP3 DUP9 ADD PUSH2 0x689 JUMP JUMPDEST SWAP4 POP POP PUSH1 0xC0 PUSH2 0x6FF DUP8 DUP3 DUP9 ADD PUSH2 0x5D8 JUMP JUMPDEST SWAP3 POP POP PUSH2 0x100 PUSH2 0x711 DUP8 DUP3 DUP9 ADD PUSH2 0x5D8 JUMP JUMPDEST SWAP2 POP POP SWAP3 SWAP6 SWAP2 SWAP5 POP SWAP3 POP JUMP JUMPDEST PUSH1 0x0 PUSH2 0x728 DUP3 PUSH2 0x3DD JUMP JUMPDEST SWAP1 POP SWAP2 SWAP1 POP JUMP JUMPDEST PUSH2 0x738 DUP2 PUSH2 0x71D JUMP JUMPDEST DUP2 EQ PUSH2 0x743 JUMPI PUSH1 0x0 DUP1 REVERT JUMPDEST POP JUMP JUMPDEST PUSH1 0x0 DUP2 CALLDATALOAD SWAP1 POP PUSH2 0x755 DUP2 PUSH2 0x72F JUMP JUMPDEST SWAP3 SWAP2 POP POP JUMP JUMPDEST PUSH1 0x0 PUSH1 0x20 DUP3 DUP5 SUB SLT ISZERO PUSH2 0x771 JUMPI PUSH2 0x770 PUSH2 0x481 JUMP JUMPDEST JUMPDEST PUSH1 0x0 PUSH2 0x77F DUP5 DUP3 DUP6 ADD PUSH2 0x746 JUMP JUMPDEST SWAP2 POP POP SWAP3 SWAP2 POP POP JUMP JUMPDEST PUSH1 0x0 DUP2 ISZERO ISZERO SWAP1 POP SWAP2 SWAP1 POP JUMP JUMPDEST PUSH2 0x79D DUP2 PUSH2 0x788 JUMP JUMPDEST DUP3 MSTORE POP POP JUMP JUMPDEST PUSH1 0x0 PUSH1 0x20 DUP3 ADD SWAP1 POP PUSH2 0x7B8 PUSH1 0x0 DUP4 ADD DUP5 PUSH2 0x794 JUMP JUMPDEST SWAP3 SWAP2 POP POP JUMP JUMPDEST PUSH2 0x7C7 DUP2 PUSH2 0x542 JUMP JUMPDEST DUP3 MSTORE POP POP JUMP JUMPDEST PUSH1 0x0 PUSH1 0x20 DUP3 ADD SWAP1 POP PUSH2 0x7E2 PUSH1 0x0 DUP4 ADD DUP5 PUSH2 0x7BE JUMP JUMPDEST SWAP3 SWAP2 POP POP JUMP JUMPDEST PUSH32 0x4E487B7100000000000000000000000000000000000000000000000000000000 PUSH1 0x0 MSTORE PUSH1 0x32 PUSH1 0x4 MSTORE PUSH1 0x24 PUSH1 0x0 REVERT JUMPDEST PUSH1 0x0 DUP3 DUP3 MSTORE PUSH1 0x20 DUP3 ADD SWAP1 POP SWAP3 SWAP2 POP POP JUMP JUMPDEST PUSH32 0x4D696E696D756D2073636F7265207468726573686F6C64206E6F74206D657420 PUSH1 0x0 DUP3 ADD MSTORE PUSH32 0x286D757374206265203E3D203730302900000000000000000000000000000000 PUSH1 0x20 DUP3 ADD MSTORE POP JUMP JUMPDEST PUSH1 0x0 PUSH2 0x884 PUSH1 0x30 DUP4 PUSH2 0x817 JUMP JUMPDEST SWAP2 POP PUSH2 0x88F DUP3 PUSH2 0x828 JUMP JUMPDEST PUSH1 0x40 DUP3 ADD SWAP1 POP SWAP2 SWAP1 POP JUMP JUMPDEST PUSH1 0x0 PUSH1 0x20 DUP3 ADD SWAP1 POP DUP2 DUP2 SUB PUSH1 0x0 DUP4 ADD MSTORE PUSH2 0x8B3 DUP2 PUSH2 0x877 JUMP JUMPDEST SWAP1 POP SWAP2 SWAP1 POP JUMP JUMPDEST PUSH32 0x50726F6F6620696E76616C69643A2057616C6C65742061646472657373206D69 PUSH1 0x0 DUP3 ADD MSTORE PUSH32 0x736D617463682100000000000000000000000000000000000000000000000000 PUSH1 0x20 DUP3 ADD MSTORE POP JUMP JUMPDEST PUSH1 0x0 PUSH2 0x916 PUSH1 0x27 DUP4 PUSH2 0x817 JUMP JUMPDEST SWAP2 POP PUSH2 0x921 DUP3 PUSH2 0x8BA JUMP JUMPDEST PUSH1 0x40 DUP3 ADD SWAP1 POP SWAP2 SWAP1 POP JUMP JUMPDEST PUSH1 0x0 PUSH1 0x20 DUP3 ADD SWAP1 POP DUP2 DUP2 SUB PUSH1 0x0 DUP4 ADD MSTORE PUSH2 0x945 DUP2 PUSH2 0x909 JUMP JUMPDEST SWAP1 POP SWAP2 SWAP1 POP JUMP JUMPDEST PUSH1 0x0 PUSH1 0x2 SWAP1 POP SWAP2 SWAP1 POP JUMP JUMPDEST PUSH1 0x0 DUP2 SWAP1 POP SWAP3 SWAP2 POP POP JUMP JUMPDEST PUSH1 0x0 DUP2 SWAP1 POP SWAP2 SWAP1 POP JUMP JUMPDEST PUSH2 0x975 DUP2 PUSH2 0x542 JUMP JUMPDEST DUP3 MSTORE POP POP JUMP JUMPDEST PUSH1 0x0 PUSH2 0x987 DUP4 DUP4 PUSH2 0x96C JUMP JUMPDEST PUSH1 0x20 DUP4 ADD SWAP1 POP SWAP3 SWAP2 POP POP JUMP JUMPDEST PUSH1 0x0 PUSH1 0x20 DUP3 ADD SWAP1 POP SWAP2 SWAP1 POP JUMP JUMPDEST PUSH2 0x9A9 DUP2 PUSH2 0x94C JUMP JUMPDEST PUSH2 0x9B3 DUP2 DUP5 PUSH2 0x957 JUMP JUMPDEST SWAP3 POP PUSH2 0x9BE DUP3 PUSH2 0x962 JUMP JUMPDEST DUP1 PUSH1 0x0 JUMPDEST DUP4 DUP2 LT ISZERO PUSH2 0x9EF JUMPI DUP2 MLOAD PUSH2 0x9D6 DUP8 DUP3 PUSH2 0x97B JUMP JUMPDEST SWAP7 POP PUSH2 0x9E1 DUP4 PUSH2 0x993 JUMP JUMPDEST SWAP3 POP POP PUSH1 0x1 DUP2 ADD SWAP1 POP PUSH2 0x9C2 JUMP JUMPDEST POP POP POP POP POP POP JUMP JUMPDEST PUSH1 0x0 PUSH1 0x2 SWAP1 POP SWAP2 SWAP1 POP JUMP JUMPDEST PUSH1 0x0 DUP2 SWAP1 POP SWAP3 SWAP2 POP POP JUMP JUMPDEST PUSH1 0x0 DUP2 SWAP1 POP SWAP2 SWAP1 POP JUMP JUMPDEST PUSH1 0x0 DUP2 SWAP1 POP SWAP3 SWAP2 POP POP JUMP JUMPDEST PUSH2 0xA2B DUP2 PUSH2 0x94C JUMP JUMPDEST PUSH2 0xA35 DUP2 DUP5 PUSH2 0xA17 JUMP JUMPDEST SWAP3 POP PUSH2 0xA40 DUP3 PUSH2 0x962 JUMP JUMPDEST DUP1 PUSH1 0x0 JUMPDEST DUP4 DUP2 LT ISZERO PUSH2 0xA71 JUMPI DUP2 MLOAD PUSH2 0xA58 DUP8 DUP3 PUSH2 0x97B JUMP JUMPDEST SWAP7 POP PUSH2 0xA63 DUP4 PUSH2 0x993 JUMP JUMPDEST SWAP3 POP POP PUSH1 0x1 DUP2 ADD SWAP1 POP PUSH2 0xA44 JUMP JUMPDEST POP POP POP POP POP POP JUMP JUMPDEST PUSH1 0x0 PUSH2 0xA85 DUP4 DUP4 PUSH2 0xA22 JUMP JUMPDEST PUSH1 0x40 DUP4 ADD SWAP1 POP SWAP3 SWAP2 POP POP JUMP JUMPDEST PUSH1 0x0 PUSH1 0x20 DUP3 ADD SWAP1 POP SWAP2 SWAP1 POP JUMP JUMPDEST PUSH2 0xAA7 DUP2 PUSH2 0x9F7 JUMP JUMPDEST PUSH2 0xAB1 DUP2 DUP5 PUSH2 0xA02 JUMP JUMPDEST SWAP3 POP PUSH2 0xABC DUP3 PUSH2 0xA0D JUMP JUMPDEST DUP1 PUSH1 0x0 JUMPDEST DUP4 DUP2 LT ISZERO PUSH2 0xAED JUMPI DUP2 MLOAD PUSH2 0xAD4 DUP8 DUP3 PUSH2 0xA79 JUMP JUMPDEST SWAP7 POP PUSH2 0xADF DUP4 PUSH2 0xA91 JUMP JUMPDEST SWAP3 POP POP PUSH1 0x1 DUP2 ADD SWAP1 POP PUSH2 0xAC0 JUMP JUMPDEST POP POP POP POP POP POP JUMP JUMPDEST PUSH1 0x0 PUSH2 0x140 DUP3 ADD SWAP1 POP PUSH2 0xB0B PUSH1 0x0 DUP4 ADD DUP8 PUSH2 0x9A0 JUMP JUMPDEST PUSH2 0xB18 PUSH1 0x40 DUP4 ADD DUP7 PUSH2 0xA9E JUMP JUMPDEST PUSH2 0xB25 PUSH1 0xC0 DUP4 ADD DUP6 PUSH2 0x9A0 JUMP JUMPDEST PUSH2 0xB33 PUSH2 0x100 DUP4 ADD DUP5 PUSH2 0x9A0 JUMP JUMPDEST SWAP6 SWAP5 POP POP POP POP POP JUMP JUMPDEST PUSH2 0xB45 DUP2 PUSH2 0x788 JUMP JUMPDEST DUP2 EQ PUSH2 0xB50 JUMPI PUSH1 0x0 DUP1 REVERT JUMPDEST POP JUMP JUMPDEST PUSH1 0x0 DUP2 MLOAD SWAP1 POP PUSH2 0xB62 DUP2 PUSH2 0xB3C JUMP JUMPDEST SWAP3 SWAP2 POP POP JUMP JUMPDEST PUSH1 0x0 PUSH1 0x20 DUP3 DUP5 SUB SLT ISZERO PUSH2 0xB7E JUMPI PUSH2 0xB7D PUSH2 0x481 JUMP JUMPDEST JUMPDEST PUSH1 0x0 PUSH2 0xB8C DUP5 DUP3 DUP6 ADD PUSH2 0xB53 JUMP JUMPDEST SWAP2 POP POP SWAP3 SWAP2 POP POP JUMP JUMPDEST PUSH32 0x496E76616C6964205A4B2050726F6F6620646574656374656400000000000000 PUSH1 0x0 DUP3 ADD MSTORE POP JUMP JUMPDEST PUSH1 0x0 PUSH2 0xBCB PUSH1 0x19 DUP4 PUSH2 0x817 JUMP JUMPDEST SWAP2 POP PUSH2 0xBD6 DUP3 PUSH2 0xB95 JUMP JUMPDEST PUSH1 0x20 DUP3 ADD SWAP1 POP SWAP2 SWAP1 POP JUMP JUMPDEST PUSH1 0x0 PUSH1 0x20 DUP3 ADD SWAP1 POP DUP2 DUP2 SUB PUSH1 0x0 DUP4 ADD MSTORE PUSH2 0xBFA DUP2 PUSH2 0xBBE JUMP JUMPDEST SWAP1 POP SWAP2 SWAP1 POP JUMP JUMPDEST PUSH1 0x0 PUSH1 0x40 DUP3 ADD SWAP1 POP PUSH2 0xC16 PUSH1 0x0 DUP4 ADD DUP6 PUSH2 0x7BE JUMP JUMPDEST PUSH2 0xC23 PUSH1 0x20 DUP4 ADD DUP5 PUSH2 0x7BE JUMP JUMPDEST SWAP4 SWAP3 POP POP POP JUMP INVALID LOG2 PUSH5 0x6970667358 0x22 SLT KECCAK256 PUSH17 0xB8E44BD6992ABB644DFADD39F3C2288DC0 0xD3 0x5D JUMPI 0xB9 SAR 0xAA 0xC5 0xD2 0x5F DUP14 PUSH32 0x9CD3BC64736F6C63430008130033000000000000000000000000000000000000 "},"methodIdentifiers":{"isVerified(address)":"b9209e33","verifiedUsers(address)":"e35fe366","verifier()":"2b7ac3f3","verifyCreditScore(uint256[2],uint256[2][2],uint256[2],uint256[2])":"412067bc"}}}}}