{
  "_format": "hh-sol-artifact-1",
  "contractName": "ZKSentinel",
  "sourceName": "contracts/Sentinel.sol",
  "abi": [
    {
      "inputs": [
        {
          "internalType": "address",
          "name": "_verifierAddress",
          "type": "address"
        }
      ],
      "stateMutability": "nonpayable",
      "type": "constructor"
    },
    {
      "anonymous": false,
      "inputs": [
        {
          "indexed": true,
          "internalType": "address",
          "name": "user",
          "type": "address"
        },
        {
          "indexed": false,
          "internalType": "uint256",
          "name": "timestamp",
          "type": "uint256"
        },
        {
          "indexed": false,
          "internalType": "uint256",
          "name": "scoreThreshold",
          "type": "uint256"
        }
      ],
      "name": "CreditVerified",
      "type": "event"
    },
    {
      "inputs": [
        {
          "internalType": "address",
          "name": "_user",
          "type": "address"
        }
      ],
      "name": "isVerified",
      "outputs": [
        {
          "internalType": "bool",
          "name": "",
          "type": "bool"
        }
      ],
      "stateMutability": "view",
      "type": "function"
    },
    {
      "inputs": [
        {
          "internalType": "address",
          "name": "",
          "type": "address"
        }
      ],
      "name": "verifiedUsers",
      "outputs": [
        {
          "internalType": "uint256",
          "name": "",
          "type": "uint256"
        }
      ],
      "stateMutability": "view",
      "type": "function"
    },
    {
      "inputs": [],
      "name": "verifier",
      "outputs": [
        {
          "internalType": "contract IVerifier",
          "name": "",
          "type": "address"
        }
      ],
      "stateMutability": "view",
      "type": "function"
    },
    {
      "inputs": [
        {
          "internalType": "uint256[2]",
          "name": "a",
          "type": "uint256[2]"
        },
        {
          "internalType": "uint256[2][2]",
          "name": "b",
          "type": "uint256[2][2]"
        },
        {
          "internalType": "uint256[2]",
          "name": "c",
          "type": "uint256[2]"
        },
        {
          "internalType": "uint256[2]",
          "name": "input",
          "type": "uint256[2]"
        }
      ],
      "name": "verifyCreditScore",
      "outputs": [],
      "stateMutability": "nonpayable",
      "type": "function"
    }
  ],
  "bytecode": "0x608060405234801561001057600080fd5b50604051610d77380380610d77833981810160405281019061003291906100db565b806000806101000a81548173ffffffffffffffffffffffffffffffffffffffff021916908373ffffffffffffffffffffffffffffffffffffffff16021790555050610108565b600080fd5b600073ffffffffffffffffffffffffffffffffffffffff82169050919050565b60006100a88261007d565b9050919050565b6100b88161009d565b81146100c357600080fd5b50565b6000815190506100d5816100af565b92915050565b6000602082840312156100f1576100f0610078565b5b60006100ff848285016100c6565b91505092915050565b610c60806101176000396000f3fe608060405234801561001057600080fd5b506004361061004c5760003560e01c80632b7ac3f314610051578063412067bc1461006f578063b9209e331461008b578063e35fe366146100bb575b600080fd5b6100596100eb565b604051610066919061045c565b60405180910390f35b610089600480360381019061008491906106b4565b61010f565b005b6100a560048036038101906100a0919061075b565b61037a565b6040516100b291906107a3565b60405180910390f35b6100d560048036038101906100d0919061075b565b6103c5565b6040516100e291906107cd565b60405180910390f35b60008054906101000a900473ffffffffffffffffffffffffffffffffffffffff1681565b6102bc81600060028110610126576101256107e8565b5b6020020151101561016c576040517f08c379a00000000000000000000000000000000000000000000000000000000081526004016101639061089a565b60405180910390fd5b60003373ffffffffffffffffffffffffffffffffffffffff169050808260016002811061019c5761019b6107e8565b5b6020020151146101e1576040517f08c379a00000000000000000000000000000000000000000000000000000000081526004016101d89061092c565b60405180910390fd5b60008060009054906101000a900473ffffffffffffffffffffffffffffffffffffffff1673ffffffffffffffffffffffffffffffffffffffff1663f5c9d69e878787876040518563ffffffff1660e01b81526004016102439493929190610af5565b602060405180830381865afa158015610260573d6000803e3d6000fd5b505050506040513d601f19601f820116820180604052508101906102849190610b68565b9050806102c6576040517f08c379a00000000000000000000000000000000000000000000000000000000081526004016102bd90610be1565b60405180910390fd5b42600160003373ffffffffffffffffffffffffffffffffffffffff1673ffffffffffffffffffffffffffffffffffffffff168152602001908152602001600020819055503373ffffffffffffffffffffffffffffffffffffffff167f4a28277b155ae24501d527d894808e7990779afea0a610806097bbe6791eddc54285600060028110610357576103566107e8565b5b602002015160405161036a929190610c01565b60405180910390a2505050505050565b600080600160008473ffffffffffffffffffffffffffffffffffffffff1673ffffffffffffffffffffffffffffffffffffffff16815260200190815260200160002054119050919050565b60016020528060005260406000206000915090505481565b600073ffffffffffffffffffffffffffffffffffffffff82169050919050565b6000819050919050565b600061042261041d610418846103dd565b6103fd565b6103dd565b9050919050565b600061043482610407565b9050919050565b600061044682610429565b9050919050565b6104568161043b565b82525050565b6000602082019050610471600083018461044d565b92915050565b6000604051905090565b600080fd5b600080fd5b6000601f19601f8301169050919050565b7f4e487b7100000000000000000000000000000000000000000000000000000000600052604160045260246000fd5b6104d48261048b565b810181811067ffffffffffffffff821117156104f3576104f261049c565b5b80604052505050565b6000610506610477565b905061051282826104cb565b919050565b600067ffffffffffffffff8211156105325761053161049c565b5b602082029050919050565b600080fd5b6000819050919050565b61055581610542565b811461056057600080fd5b50565b6000813590506105728161054c565b92915050565b600061058b61058684610517565b6104fc565b905080602084028301858111156105a5576105a461053d565b5b835b818110156105ce57806105ba8882610563565b8452602084019350506020810190506105a7565b5050509392505050565b600082601f8301126105ed576105ec610486565b5b60026105fa848285610578565b91505092915050565b600067ffffffffffffffff82111561061e5761061d61049c565b5b602082029050919050565b600061063c61063784610603565b6104fc565b905080604084028301858111156106565761065561053d565b5b835b8181101561067f578061066b88826105d8565b845260208401935050604081019050610658565b5050509392505050565b600082601f83011261069e5761069d610486565b5b60026106ab848285610629565b91505092915050565b60008060008061014085870312156106cf576106ce610481565b5b60006106dd878288016105d8565b94505060406106ee87828801610689565b93505060c06106ff878288016105d8565b925050610100610711878288016105d8565b91505092959194509250565b6000610728826103dd565b9050919050565b6107388161071d565b811461074357600080fd5b50565b6000813590506107558161072f565b92915050565b60006020828403121561077157610770610481565b5b600061077f84828501610746565b91505092915050565b60008115159050919050565b61079d81610788565b82525050565b60006020820190506107b86000830184610794565b92915050565b6107c781610542565b82525050565b60006020820190506107e260008301846107be565b92915050565b7f4e487b7100000000000000000000000000000000000000000000000000000000600052603260045260246000fd5b600082825260208201905092915050565b7f4d696e696d756d2073636f7265207468726573686f6c64206e6f74206d65742060008201527f286d757374206265203e3d203730302900000000000000000000000000000000602082015250565b6000610884603083610817565b915061088f82610828565b604082019050919050565b600060208201905081810360008301526108b381610877565b9050919050565b7f50726f6f6620696e76616c69643a2057616c6c65742061646472657373206d6960008201527f736d617463682100000000000000000000000000000000000000000000000000602082015250565b6000610916602783610817565b9150610921826108ba565b604082019050919050565b6000602082019050818103600083015261094581610909565b9050919050565b600060029050919050565b600081905092915050565b6000819050919050565b61097581610542565b82525050565b6000610987838361096c565b60208301905092915050565b6000602082019050919050565b6109a98161094c565b6109b38184610957565b92506109be82610962565b8060005b838110156109ef5781516109d6878261097b565b96506109e183610993565b9250506001810190506109c2565b505050505050565b600060029050919050565b600081905092915050565b6000819050919050565b600081905092915050565b610a2b8161094c565b610a358184610a17565b9250610a4082610962565b8060005b83811015610a71578151610a58878261097b565b9650610a6383610993565b925050600181019050610a44565b505050505050565b6000610a858383610a22565b60408301905092915050565b6000602082019050919050565b610aa7816109f7565b610ab18184610a02565b9250610abc82610a0d565b8060005b83811015610aed578151610ad48782610a79565b9650610adf83610a91565b925050600181019050610ac0565b505050505050565b600061014082019050610b0b60008301876109a0565b610b186040830186610a9e565b610b2560c08301856109a0565b610b336101008301846109a0565b95945050505050565b610b4581610788565b8114610b5057600080fd5b50565b600081519050610b6281610b3c565b92915050565b600060208284031215610b7e57610b7d610481565b5b6000610b8c84828501610b53565b91505092915050565b7f496e76616c6964205a4b2050726f6f6620646574656374656400000000000000600082015250565b6000610bcb601983610817565b9150610bd682610b95565b602082019050919050565b60006020820190508181036000830152610bfa81610bbe565b9050919050565b6000604082019050610c1660008301856107be565b610c2360208301846107be565b939250505056fea264697066735822122070b8e44bd6992abb644dfadd39f3c2288dc0d35d57b91daac5d25f8d7f9cd3bc64736f6c63430008130033",
  "linkReferences": {},
  "deployedLinkReferences": {}
}