{
  "_format": "hh-sol-artifact-1",
  "contractName": "ZKSentinel",
  "sourceName": "contracts/Sentinel.sol",
  "abi": [
    {
      "inputs": [
        {
          "internalType": "address",
          "name": "_verifierAddress",
          "type": "address"
        }
      ],
      "stateMutability": "nonpayable",
      "type": "constructor"
    },
    {
      "anonymous": false,
      "inputs": [
        {
          "indexed": true,
          "internalType": "address",
          "name": "user",
          "type": "address"
        },
        {
          "indexed": false,
          "internalType": "uint256",
          "name": "timestamp",
          "type": "uint256"
        }
      ],
      "name": "CreditVerified",
      "type": "event"
    },
    {
      "inputs": [
        {
          "internalType": "address",
          "name": "",
          "type": "address"
        }
      ],
      "name": "hasVerified",
      "outputs": [
        {
          "internalType": "bool",
          "name": "",
          "type": "bool"
        }
      ],
      "stateMutability": "view",
      "type": "function"
    },
    {
      "inputs": [
        {
          "internalType": "address",
          "name": "_user",
          "type": "address"
        }
      ],
      "name": "isVerified",
      "outputs": [
        {
          "internalType": "bool",
          "name": "",
          "type": "bool"
        }
      ],
      "stateMutability": "view",
      "type": "function"
    },
    {
      "inputs": [],
      "name": "verifier",
      "outputs": [
        {
          "internalType": "contract IVerifier",
          "name": "",
          "type": "address"
        }
      ],
      "stateMutability": "view",
      "type": "function"
    },
    {
      "inputs": [
        {
          "internalType": "uint256[2]",
          "name": "a",
          "type": "uint256[2]"
        },
        {
          "internalType": "uint256[2][2]",
          "name": "b",
          "type": "uint256[2][2]"
        },
        {
          "internalType": "uint256[2]",
          "name": "c",
          "type": "uint256[2]"
        },
        {
          "internalType": "uint256[2]",
          "name": "input",
          "type": "uint256[2]"
        }
      ],
      "name": "verifyCreditScore",
      "outputs": [],
      "stateMutability": "nonpayable",
      "type": "function"
    }
  ],
  "bytecode": "0x608060405234801561001057600080fd5b50604051610d2e380380610d2e833981810160405281019061003291906100db565b806000806101000a81548173ffffffffffffffffffffffffffffffffffffffff021916908373ffffffffffffffffffffffffffffffffffffffff16021790555050610108565b600080fd5b600073ffffffffffffffffffffffffffffffffffffffff82169050919050565b60006100a88261007d565b9050919050565b6100b88161009d565b81146100c357600080fd5b50565b6000815190506100d5816100af565b92915050565b6000602082840312156100f1576100f0610078565b5b60006100ff848285016100c6565b91505092915050565b610c17806101176000396000f3fe608060405234801561001057600080fd5b506004361061004c5760003560e01c80632b7ac3f314610051578063412067bc1461006f578063b9209e331461008b578063c27c2514146100bb575b600080fd5b6100596100eb565b6040516100669190610462565b60405180910390f35b610089600480360381019061008491906106ba565b61010f565b005b6100a560048036038101906100a09190610761565b61036d565b6040516100b291906107a9565b60405180910390f35b6100d560048036038101906100d09190610761565b6103c3565b6040516100e291906107a9565b60405180910390f35b60008054906101000a900473ffffffffffffffffffffffffffffffffffffffff1681565b6102bc81600060028110610126576101256107c4565b5b6020020151101561016c576040517f08c379a000000000000000000000000000000000000000000000000000000000815260040161016390610850565b60405180910390fd5b3373ffffffffffffffffffffffffffffffffffffffff1681600160028110610197576101966107c4565b5b6020020151146101dc576040517f08c379a00000000000000000000000000000000000000000000000000000000081526004016101d3906108e2565b60405180910390fd5b60008060009054906101000a900473ffffffffffffffffffffffffffffffffffffffff1673ffffffffffffffffffffffffffffffffffffffff1663f5c9d69e868686866040518563ffffffff1660e01b815260040161023e9493929190610aab565b602060405180830381865afa15801561025b573d6000803e3d6000fd5b505050506040513d601f19601f8201168201806040525081019061027f9190610b1e565b9050806102c1576040517f08c379a00000000000000000000000000000000000000000000000000000000081526004016102b890610b97565b60405180910390fd5b60018060003373ffffffffffffffffffffffffffffffffffffffff1673ffffffffffffffffffffffffffffffffffffffff16815260200190815260200160002060006101000a81548160ff0219169083151502179055503373ffffffffffffffffffffffffffffffffffffffff167f2c21fd7e426aabe42adb3dcb3f5f29e56b2dcff31cde289fbf6e620dd3c740ad4260405161035e9190610bc6565b60405180910390a25050505050565b6000600160008373ffffffffffffffffffffffffffffffffffffffff1673ffffffffffffffffffffffffffffffffffffffff16815260200190815260200160002060009054906101000a900460ff169050919050565b60016020528060005260406000206000915054906101000a900460ff1681565b600073ffffffffffffffffffffffffffffffffffffffff82169050919050565b6000819050919050565b600061042861042361041e846103e3565b610403565b6103e3565b9050919050565b600061043a8261040d565b9050919050565b600061044c8261042f565b9050919050565b61045c81610441565b82525050565b60006020820190506104776000830184610453565b92915050565b6000604051905090565b600080fd5b600080fd5b6000601f19601f8301169050919050565b7f4e487b7100000000000000000000000000000000000000000000000000000000600052604160045260246000fd5b6104da82610491565b810181811067ffffffffffffffff821117156104f9576104f86104a2565b5b80604052505050565b600061050c61047d565b905061051882826104d1565b919050565b600067ffffffffffffffff821115610538576105376104a2565b5b602082029050919050565b600080fd5b6000819050919050565b61055b81610548565b811461056657600080fd5b50565b60008135905061057881610552565b92915050565b600061059161058c8461051d565b610502565b905080602084028301858111156105ab576105aa610543565b5b835b818110156105d457806105c08882610569565b8452602084019350506020810190506105ad565b5050509392505050565b600082601f8301126105f3576105f261048c565b5b600261060084828561057e565b91505092915050565b600067ffffffffffffffff821115610624576106236104a2565b5b602082029050919050565b600061064261063d84610609565b610502565b9050806040840283018581111561065c5761065b610543565b5b835b81811015610685578061067188826105de565b84526020840193505060408101905061065e565b5050509392505050565b600082601f8301126106a4576106a361048c565b5b60026106b184828561062f565b91505092915050565b60008060008061014085870312156106d5576106d4610487565b5b60006106e3878288016105de565b94505060406106f48782880161068f565b93505060c0610705878288016105de565b925050610100610717878288016105de565b91505092959194509250565b600061072e826103e3565b9050919050565b61073e81610723565b811461074957600080fd5b50565b60008135905061075b81610735565b92915050565b60006020828403121561077757610776610487565b5b60006107858482850161074c565b91505092915050565b60008115159050919050565b6107a38161078e565b82525050565b60006020820190506107be600083018461079a565b92915050565b7f4e487b7100000000000000000000000000000000000000000000000000000000600052603260045260246000fd5b600082825260208201905092915050565b7f53636f7265207468726573686f6c64206e6f74206d6574000000000000000000600082015250565b600061083a6017836107f3565b915061084582610804565b602082019050919050565b600060208201905081810360008301526108698161082d565b9050919050565b7f50726f6f662062656c6f6e677320746f206120646966666572656e742061646460008201527f7265737321000000000000000000000000000000000000000000000000000000602082015250565b60006108cc6025836107f3565b91506108d782610870565b604082019050919050565b600060208201905081810360008301526108fb816108bf565b9050919050565b600060029050919050565b600081905092915050565b6000819050919050565b61092b81610548565b82525050565b600061093d8383610922565b60208301905092915050565b6000602082019050919050565b61095f81610902565b610969818461090d565b925061097482610918565b8060005b838110156109a557815161098c8782610931565b965061099783610949565b925050600181019050610978565b505050505050565b600060029050919050565b600081905092915050565b6000819050919050565b600081905092915050565b6109e181610902565b6109eb81846109cd565b92506109f682610918565b8060005b83811015610a27578151610a0e8782610931565b9650610a1983610949565b9250506001810190506109fa565b505050505050565b6000610a3b83836109d8565b60408301905092915050565b6000602082019050919050565b610a5d816109ad565b610a6781846109b8565b9250610a72826109c3565b8060005b83811015610aa3578151610a8a8782610a2f565b9650610a9583610a47565b925050600181019050610a76565b505050505050565b600061014082019050610ac16000830187610956565b610ace6040830186610a54565b610adb60c0830185610956565b610ae9610100830184610956565b95945050505050565b610afb8161078e565b8114610b0657600080fd5b50565b600081519050610b1881610af2565b92915050565b600060208284031215610b3457610b33610487565b5b6000610b4284828501610b09565b91505092915050565b7f496e76616c6964205a4b2050726f6f6600000000000000000000000000000000600082015250565b6000610b816010836107f3565b9150610b8c82610b4b565b602082019050919050565b60006020820190508181036000830152610bb081610b74565b9050919050565b610bc081610548565b82525050565b6000602082019050610bdb6000830184610bb7565b9291505056fea26469706673582212207941f1a2eb613d931f39a9eefc006e0ce6133fd17920861abbfccb505243fa3b64736f6c63430008130033",
  "linkReferences": {},
  "deployedLinkReferences": {}
}